{"abi":[{"type":"constructor","inputs":[{"name":"_yieldRouter","type":"address","internalType":"contract IYieldRouter"},{"name":"_emergencyModule","type":"address","internalType":"address"},{"name":"_savingsCircle","type":"address","internalType":"address"},{"name":"_stablecoin","type":"address","internalType":"address"},{"name":"_safetyNetPool","type":"address","internalType":"address"}],"stateMutability":"nonpayable"},{"type":"function","name":"activateEmergency","inputs":[],"outputs":[],"stateMutability":"nonpayable"},{"type":"function","name":"addSafetyNetDebt","inputs":[{"name":"shieldedId","type":"bytes32","internalType":"bytes32"},{"name":"shares","type":"uint256","internalType":"uint256"}],"outputs":[],"stateMutability":"nonpayable"},{"type":"function","name":"chargeFromYield","inputs":[{"name":"shieldedId","type":"bytes32","internalType":"bytes32"},{"name":"amount","type":"uint256","internalType":"uint256"}],"outputs":[],"stateMutability":"nonpayable"},{"type":"function","name":"clearSafetyNetDebt","inputs":[{"name":"shieldedId","type":"bytes32","internalType":"bytes32"}],"outputs":[],"stateMutability":"nonpayable"},{"type":"function","name":"computeShieldedId","inputs":[{"name":"user","type":"address","internalType":"address"}],"outputs":[{"name":"","type":"bytes32","internalType":"bytes32"}],"stateMutability":"view"},{"type":"function","name":"creditPrincipal","inputs":[{"name":"shieldedId","type":"bytes32","internalType":"bytes32"},{"name":"amount","type":"uint256","internalType":"uint256"}],"outputs":[],"stateMutability":"nonpayable"},{"type":"function","name":"creditYield","inputs":[{"name":"shieldedId","type":"bytes32","internalType":"bytes32"},{"name":"amount","type":"uint256","internalType":"uint256"}],"outputs":[],"stateMutability":"nonpayable"},{"type":"function","name":"deposit","inputs":[{"name":"amount","type":"uint256","internalType":"uint256"}],"outputs":[],"stateMutability":"nonpayable"},{"type":"function","name":"emergencyActive","inputs":[],"outputs":[{"name":"","type":"bool","internalType":"bool"}],"stateMutability":"view"},{"type":"function","name":"emergencyModule","inputs":[],"outputs":[{"name":"","type":"address","internalType":"address"}],"stateMutability":"view"},{"type":"function","name":"emergencyWithdraw","inputs":[],"outputs":[],"stateMutability":"nonpayable"},{"type":"function","name":"getCircleObligation","inputs":[{"name":"shieldedId","type":"bytes32","internalType":"bytes32"}],"outputs":[{"name":"","type":"uint256","internalType":"uint256"}],"stateMutability":"view"},{"type":"function","name":"getPosition","inputs":[{"name":"shieldedId","type":"bytes32","internalType":"bytes32"}],"outputs":[{"name":"","type":"tuple","internalType":"struct ISavingsAccount.Position","components":[{"name":"balance","type":"uint256","internalType":"uint256"},{"name":"circleObligation","type":"uint256","internalType":"uint256"},{"name":"yieldEarnedTotal","type":"uint256","internalType":"uint256"},{"name":"lastUpdateTimestamp","type":"uint256","internalType":"uint256"},{"name":"emergencyExit","type":"bool","internalType":"bool"},{"name":"safetyNetDebtShares","type":"uint256","internalType":"uint256"}]}],"stateMutability":"view"},{"type":"function","name":"getSafetyNetDebtShares","inputs":[{"name":"shieldedId","type":"bytes32","internalType":"bytes32"}],"outputs":[{"name":"","type":"uint256","internalType":"uint256"}],"stateMutability":"view"},{"type":"function","name":"getWithdrawableBalance","inputs":[{"name":"shieldedId","type":"bytes32","internalType":"bytes32"}],"outputs":[{"name":"","type":"uint256","internalType":"uint256"}],"stateMutability":"view"},{"type":"function","name":"safetyNetPool","inputs":[],"outputs":[{"name":"","type":"address","internalType":"address"}],"stateMutability":"view"},{"type":"function","name":"savingsCircle","inputs":[],"outputs":[{"name":"","type":"address","internalType":"address"}],"stateMutability":"view"},{"type":"function","name":"setCircleObligation","inputs":[{"name":"shieldedId","type":"bytes32","internalType":"bytes32"},{"name":"amount","type":"uint256","internalType":"uint256"}],"outputs":[],"stateMutability":"nonpayable"},{"type":"function","name":"stablecoin","inputs":[],"outputs":[{"name":"","type":"address","internalType":"contract IERC20"}],"stateMutability":"view"},{"type":"function","name":"withdraw","inputs":[{"name":"amount","type":"uint256","internalType":"uint256"}],"outputs":[],"stateMutability":"nonpayable"},{"type":"function","name":"yieldRouter","inputs":[],"outputs":[{"name":"","type":"address","internalType":"contract IYieldRouter"}],"stateMutability":"view"},{"type":"event","name":"Deposited","inputs":[{"name":"shieldedId","type":"bytes32","indexed":true,"internalType":"bytes32"},{"name":"amount","type":"uint256","indexed":false,"internalType":"uint256"}],"anonymous":false},{"type":"event","name":"EmergencyActivated","inputs":[],"anonymous":false},{"type":"event","name":"EmergencyExitExecuted","inputs":[{"name":"shieldedId","type":"bytes32","indexed":true,"internalType":"bytes32"},{"name":"amountReturned","type":"uint256","indexed":false,"internalType":"uint256"}],"anonymous":false},{"type":"event","name":"ObligationSet","inputs":[{"name":"shieldedId","type":"bytes32","indexed":true,"internalType":"bytes32"},{"name":"newObligation","type":"uint256","indexed":false,"internalType":"uint256"}],"anonymous":false},{"type":"event","name":"SafetyNetDebtAdded","inputs":[{"name":"shieldedId","type":"bytes32","indexed":true,"internalType":"bytes32"},{"name":"shares","type":"uint256","indexed":false,"internalType":"uint256"}],"anonymous":false},{"type":"event","name":"SafetyNetDebtCleared","inputs":[{"name":"shieldedId","type":"bytes32","indexed":true,"internalType":"bytes32"},{"name":"settledShares","type":"uint256","indexed":false,"internalType":"uint256"}],"anonymous":false},{"type":"event","name":"Withdrawn","inputs":[{"name":"shieldedId","type":"bytes32","indexed":true,"internalType":"bytes32"},{"name":"amount","type":"uint256","indexed":false,"internalType":"uint256"}],"anonymous":false},{"type":"event","name":"YieldCharged","inputs":[{"name":"shieldedId","type":"bytes32","indexed":true,"internalType":"bytes32"},{"name":"total","type":"uint256","indexed":false,"internalType":"uint256"},{"name":"fromYield","type":"uint256","indexed":false,"internalType":"uint256"},{"name":"fromBalance","type":"uint256","indexed":false,"internalType":"uint256"}],"anonymous":false},{"type":"event","name":"YieldCredited","inputs":[{"name":"shieldedId","type":"bytes32","indexed":true,"internalType":"bytes32"},{"name":"amount","type":"uint256","indexed":false,"internalType":"uint256"}],"anonymous":false},{"type":"error","name":"EmergencyAlreadyActive","inputs":[]},{"type":"error","name":"EmergencyNotActive","inputs":[]},{"type":"error","name":"InsufficientWithdrawableBalance","inputs":[{"name":"requested","type":"uint256","internalType":"uint256"},{"name":"available","type":"uint256","internalType":"uint256"}]},{"type":"error","name":"NotAuthorized","inputs":[{"name":"caller","type":"address","internalType":"address"},{"name":"expected","type":"address","internalType":"address"}]},{"type":"error","name":"PositionAlreadyExited","inputs":[]},{"type":"error","name":"PositionInsolvent","inputs":[{"name":"shieldedId","type":"bytes32","internalType":"bytes32"}]},{"type":"error","name":"PrincipalLockViolation","inputs":[{"name":"balance","type":"uint256","internalType":"uint256"},{"name":"obligation","type":"uint256","internalType":"uint256"}]},{"type":"error","name":"ReentrancyGuardReentrantCall","inputs":[]},{"type":"error","name":"SafeERC20FailedOperation","inputs":[{"name":"token","type":"address","internalType":"address"}]},{"type":"error","name":"ZeroAmount","inputs":[]}],"bytecode":{"object":"0x61012060405234801562000011575f80fd5b50604051620022a2380380620022a2833981810160405281019062000037919062000248565b6001620000596200004d6200016f60201b60201c565b6200019860201b60201c565b5f01819055508473ffffffffffffffffffffffffffffffffffffffff1660808173ffffffffffffffffffffffffffffffffffffffff16815250508373ffffffffffffffffffffffffffffffffffffffff1660a08173ffffffffffffffffffffffffffffffffffffffff16815250508273ffffffffffffffffffffffffffffffffffffffff1660c08173ffffffffffffffffffffffffffffffffffffffff16815250508173ffffffffffffffffffffffffffffffffffffffff166101008173ffffffffffffffffffffffffffffffffffffffff16815250508073ffffffffffffffffffffffffffffffffffffffff1660e08173ffffffffffffffffffffffffffffffffffffffff16815250505050505050620002cc565b5f7f9b779b17422d0df92223018b32b4d1fa46e071723d6817e2486d003becc55f005f1b905090565b5f819050919050565b5f80fd5b5f73ffffffffffffffffffffffffffffffffffffffff82169050919050565b5f620001d082620001a5565b9050919050565b5f620001e382620001c4565b9050919050565b620001f581620001d7565b811462000200575f80fd5b50565b5f815190506200021381620001ea565b92915050565b6200022481620001c4565b81146200022f575f80fd5b50565b5f81519050620002428162000219565b92915050565b5f805f805f60a08688031215620002645762000263620001a1565b5b5f620002738882890162000203565b9550506020620002868882890162000232565b9450506040620002998882890162000232565b9350506060620002ac8882890162000232565b9250506080620002bf8882890162000232565b9150509295509295909350565b60805160a05160c05160e05161010051611f0c620003965f395f8181610d5801528181610e0401526112ec01525f818161076301528181610be501528181610c3901528181611310015261136401525f818161046c015281816104c0015281816107bc01528181610aa501528181610af901528181610f1d0152610f7101525f8181610787015281816107fc015261085001525f81816103d3015281816106760152818161093c0152818161099001528181610de201528181610e4a01526111ed0152611f0c5ff3fe608060405234801561000f575f80fd5b5060043610610135575f3560e01c80636eff423b116100b6578063bf1558681161007a578063bf1558681461030f578063db2e21bc1461033f578063e64af00c14610349578063e9cbd82214610379578063eae7fd8714610397578063eddaa3ab146103b357610135565b80636eff423b14610283578063a2c6cbba1461029f578063ae329955146102bb578063b6b55f25146102d7578063bad81b40146102f357610135565b806342883e2b116100fd57806342883e2b146101dd57806343e56215146101fb578063442a5a231461022b57806344ba9f3514610249578063457e8b971461027957610135565b806308ccadd8146101395780631928b3cb146101575780631e1c7275146101875780632e1a7d4d146101a3578063413578b7146101bf575b5f80fd5b6101416103d1565b60405161014e919061191e565b60405180910390f35b610171600480360381019061016c919061196e565b6103f5565b60405161017e9190611a44565b60405180910390f35b6101a1600480360381019061019c919061196e565b61046a565b005b6101bd60048036038101906101b89190611a87565b610595565b005b6101c7610761565b6040516101d49190611ad2565b60405180910390f35b6101e5610785565b6040516101f29190611ad2565b60405180910390f35b61021560048036038101906102109190611b15565b6107a9565b6040516102229190611b4f565b60405180910390f35b6102336107ba565b6040516102409190611ad2565b60405180910390f35b610263600480360381019061025e919061196e565b6107de565b6040516102709190611b77565b60405180910390f35b6102816107fa565b005b61029d60048036038101906102989190611b90565b61093a565b005b6102b960048036038101906102b49190611b90565b610aa3565b005b6102d560048036038101906102d09190611b90565b610be3565b005b6102f160048036038101906102ec9190611a87565b610d03565b005b61030d60048036038101906103089190611b90565b610f1b565b005b6103296004803603810190610324919061196e565b611085565b6040516103369190611b77565b60405180910390f35b6103476110b4565b005b610363600480360381019061035e919061196e565b6112ce565b6040516103709190611b77565b60405180910390f35b6103816112ea565b60405161038e9190611bee565b60405180910390f35b6103b160048036038101906103ac9190611b90565b61130e565b005b6103bb61151e565b6040516103c89190611c16565b60405180910390f35b7f000000000000000000000000000000000000000000000000000000000000000081565b6103fd611872565b5f808381526020019081526020015f206040518060c00160405290815f8201548152602001600182015481526020016002820154815260200160038201548152602001600482015f9054906101000a900460ff161515151581526020016005820154815250509050919050565b7f000000000000000000000000000000000000000000000000000000000000000073ffffffffffffffffffffffffffffffffffffffff163373ffffffffffffffffffffffffffffffffffffffff161461051c57337f00000000000000000000000000000000000000000000000000000000000000006040517fc55ddc97000000000000000000000000000000000000000000000000000000008152600401610513929190611c2f565b60405180910390fd5b5f805f8381526020019081526020015f206005015490505f81036105405750610592565b5f805f8481526020019081526020015f2060050181905550817fb7c1b77e21fa08b40765459f5de59ad4bb47d0793883219a4457bba11c9896d2826040516105889190611b77565b60405180910390a2505b50565b61059d611530565b5f81036105d6576040517f1f2a200500000000000000000000000000000000000000000000000000000000815260040160405180910390fd5b5f6105e033611552565b90505f805f8381526020019081526020015f2090505f8160010154825f01546106099190611c83565b9050838110156106525783816040517f23d7c8f0000000000000000000000000000000000000000000000000000000008152600401610649929190611cb6565b60405180910390fd5b83825f015f8282546106649190611c83565b925050819055504282600301819055507f000000000000000000000000000000000000000000000000000000000000000073ffffffffffffffffffffffffffffffffffffffff1663b460af948533306040518463ffffffff1660e01b81526004016106d193929190611cdd565b6020604051808303815f875af11580156106ed573d5f803e3d5ffd5b505050506040513d601f19601f820116820180604052508101906107119190611d26565b5061071b836115c0565b827f6620f0849b3b96a180cce108df2fc1f0d6c68af3745da66e833b8c7c1600eddb8560405161074b9190611b77565b60405180910390a250505061075e6115ef565b50565b7f000000000000000000000000000000000000000000000000000000000000000081565b7f000000000000000000000000000000000000000000000000000000000000000081565b5f6107b382611552565b9050919050565b7f000000000000000000000000000000000000000000000000000000000000000081565b5f805f8381526020019081526020015f20600101549050919050565b7f000000000000000000000000000000000000000000000000000000000000000073ffffffffffffffffffffffffffffffffffffffff163373ffffffffffffffffffffffffffffffffffffffff16146108ac57337f00000000000000000000000000000000000000000000000000000000000000006040517fc55ddc970000000000000000000000000000000000000000000000000000000081526004016108a3929190611c2f565b60405180910390fd5b60025f9054906101000a900460ff16156108f2576040517f8963872100000000000000000000000000000000000000000000000000000000815260040160405180910390fd5b600160025f6101000a81548160ff0219169083151502179055507fd596bbda13fdbf0904b2a7ce45e50145b26720d719bd8dd257f3020fe7bf880f60405160405180910390a1565b7f000000000000000000000000000000000000000000000000000000000000000073ffffffffffffffffffffffffffffffffffffffff163373ffffffffffffffffffffffffffffffffffffffff16146109ec57337f00000000000000000000000000000000000000000000000000000000000000006040517fc55ddc970000000000000000000000000000000000000000000000000000000081526004016109e3929190611c2f565b60405180910390fd5b5f810315610a9f57805f808481526020019081526020015f205f015f828254610a159190611d51565b92505081905550805f808481526020019081526020015f206002015f828254610a3e9190611d51565b92505081905550425f808481526020019081526020015f2060030181905550610a66826115c0565b817fe61fa52472694d5f57908a9994f1e2f3e1ac3f0d390c0596a78715011088a03082604051610a969190611b77565b60405180910390a25b5050565b7f000000000000000000000000000000000000000000000000000000000000000073ffffffffffffffffffffffffffffffffffffffff163373ffffffffffffffffffffffffffffffffffffffff1614610b5557337f00000000000000000000000000000000000000000000000000000000000000006040517fc55ddc97000000000000000000000000000000000000000000000000000000008152600401610b4c929190611c2f565b60405180910390fd5b5f810315610bdf57805f808481526020019081526020015f205f015f828254610b7e9190611d51565b92505081905550425f808481526020019081526020015f2060030181905550610ba6826115c0565b817fe61fa52472694d5f57908a9994f1e2f3e1ac3f0d390c0596a78715011088a03082604051610bd69190611b77565b60405180910390a25b5050565b7f000000000000000000000000000000000000000000000000000000000000000073ffffffffffffffffffffffffffffffffffffffff163373ffffffffffffffffffffffffffffffffffffffff1614610c9557337f00000000000000000000000000000000000000000000000000000000000000006040517fc55ddc97000000000000000000000000000000000000000000000000000000008152600401610c8c929190611c2f565b60405180910390fd5b5f810315610cff57805f808481526020019081526020015f206005015f828254610cbf9190611d51565b92505081905550817f99124a75fd4cc7edaa67d17406685524d36765fba19bfad6e4ff3ddacadca76682604051610cf69190611b77565b60405180910390a25b5050565b610d0b611530565b5f8103610d44576040517f1f2a200500000000000000000000000000000000000000000000000000000000815260040160405180910390fd5b5f610d4e33611552565b9050610d9d3330847f000000000000000000000000000000000000000000000000000000000000000073ffffffffffffffffffffffffffffffffffffffff16611609909392919063ffffffff16565b815f808381526020019081526020015f205f015f828254610dbe9190611d51565b92505081905550425f808381526020019081526020015f2060030181905550610e487f0000000000000000000000000000000000000000000000000000000000000000837f000000000000000000000000000000000000000000000000000000000000000073ffffffffffffffffffffffffffffffffffffffff1661165e9092919063ffffffff16565b7f000000000000000000000000000000000000000000000000000000000000000073ffffffffffffffffffffffffffffffffffffffff166390ca796b836040518263ffffffff1660e01b8152600401610ea19190611b77565b5f604051808303815f87803b158015610eb8575f80fd5b505af1158015610eca573d5f803e3d5ffd5b50505050610ed7816115c0565b807fcd2fe07293de5928c5df9505b65a8d6506f8668dfe81af09090920687edc48a983604051610f079190611b77565b60405180910390a250610f186115ef565b50565b7f000000000000000000000000000000000000000000000000000000000000000073ffffffffffffffffffffffffffffffffffffffff163373ffffffffffffffffffffffffffffffffffffffff1614610fcd57337f00000000000000000000000000000000000000000000000000000000000000006040517fc55ddc97000000000000000000000000000000000000000000000000000000008152600401610fc4929190611c2f565b60405180910390fd5b5f805f8481526020019081526020015f20905081815f0154101561102d57805f0154826040517f7d1f9c93000000000000000000000000000000000000000000000000000000008152600401611024929190611cb6565b60405180910390fd5b818160010181905550428160030181905550611048836115c0565b827fd3af0be93cb3b598600c889566ff3f3a02975104fd5f3598b61fb49cb7a1c160836040516110789190611b77565b60405180910390a2505050565b5f805f808481526020019081526020015f2090508060010154815f01546110ac9190611c83565b915050919050565b6110bc611530565b60025f9054906101000a900460ff16611101576040517f93282d7900000000000000000000000000000000000000000000000000000000815260040160405180910390fd5b5f61110b33611552565b90505f805f8381526020019081526020015f209050806004015f9054906101000a900460ff1615611168576040517f398f905f00000000000000000000000000000000000000000000000000000000815260040160405180910390fd5b5f815f015490505f81036111b5575f806040517f23d7c8f00000000000000000000000000000000000000000000000000000000081526004016111ac929190611dbd565b60405180910390fd5b5f82600101819055505f825f01819055506001826004015f6101000a81548160ff0219169083151502179055504282600301819055507f000000000000000000000000000000000000000000000000000000000000000073ffffffffffffffffffffffffffffffffffffffff1663b460af948233306040518463ffffffff1660e01b815260040161124893929190611cdd565b6020604051808303815f875af1158015611264573d5f803e3d5ffd5b505050506040513d601f19601f820116820180604052508101906112889190611d26565b50827ff6eea294b1d19462f00260d2f6de3fa5b66beb220ab1dbe4bdfd5b69b777530e826040516112b99190611b77565b60405180910390a25050506112cc6115ef565b565b5f805f8381526020019081526020015f20600501549050919050565b7f000000000000000000000000000000000000000000000000000000000000000081565b7f000000000000000000000000000000000000000000000000000000000000000073ffffffffffffffffffffffffffffffffffffffff163373ffffffffffffffffffffffffffffffffffffffff16146113c057337f00000000000000000000000000000000000000000000000000000000000000006040517fc55ddc970000000000000000000000000000000000000000000000000000000081526004016113b7929190611c2f565b60405180910390fd5b5f81031561151a575f805f8481526020019081526020015f2090505f80838360020154106114235783915083836002015f8282546113fe9190611c83565b9250508190555083835f015f8282546114179190611c83565b925050819055506114d1565b826002015491505f82856114379190611c83565b90505f8460010154855f01541161144e575f611462565b8460010154855f01546114619190611c83565b5b9050818110156114a957866040517f373da36c0000000000000000000000000000000000000000000000000000000081526004016114a09190611b4f565b60405180910390fd5b8192505f856002018190555085855f015f8282546114c79190611c83565b9250508190555050505b428360030181905550847fb58c97dd81198aa46d6f632cc9262722b2dc2463ba6fc639f18c6e7c046fa37085848460405161150e93929190611de4565b60405180910390a25050505b5050565b60025f9054906101000a900460ff1681565b611538611710565b600261154a611545611751565b61177a565b5f0181905550565b5f8160015f8473ffffffffffffffffffffffffffffffffffffffff1673ffffffffffffffffffffffffffffffffffffffff1681526020019081526020015f20546040516020016115a3929190611e7e565b604051602081830303815290604052805190602001209050919050565b5f805f8381526020019081526020015f2090508060010154815f015410156115eb576115ea611ea9565b5b5050565b60016116016115fc611751565b61177a565b5f0181905550565b611617848484846001611783565b61165857836040517f5274afe700000000000000000000000000000000000000000000000000000000815260040161164f9190611ad2565b60405180910390fd5b50505050565b61166a8383835f6117f4565b61170b5761167b83835f60016117f4565b6116bc57826040517f5274afe70000000000000000000000000000000000000000000000000000000081526004016116b39190611ad2565b60405180910390fd5b6116c983838360016117f4565b61170a57826040517f5274afe70000000000000000000000000000000000000000000000000000000081526004016117019190611ad2565b60405180910390fd5b5b505050565b611718611856565b1561174f576040517f3ee5aeb500000000000000000000000000000000000000000000000000000000815260040160405180910390fd5b565b5f7f9b779b17422d0df92223018b32b4d1fa46e071723d6817e2486d003becc55f005f1b905090565b5f819050919050565b5f806323b872dd60e01b9050604051815f525f1960601c87166004525f1960601c86166024528460445260205f60645f808c5af1925060015f511483166117e15783831516156117d5573d5f823e3d81fd5b5f883b113d1516831692505b806040525f606052505095945050505050565b5f8063095ea7b360e01b9050604051815f525f1960601c86166004528460245260205f60445f808b5af1925060015f5114831661184857838315161561183c573d5f823e3d81fd5b5f873b113d1516831692505b806040525050949350505050565b5f6002611869611864611751565b61177a565b5f015414905090565b6040518060c001604052805f81526020015f81526020015f81526020015f81526020015f151581526020015f81525090565b5f73ffffffffffffffffffffffffffffffffffffffff82169050919050565b5f819050919050565b5f6118e66118e16118dc846118a4565b6118c3565b6118a4565b9050919050565b5f6118f7826118cc565b9050919050565b5f611908826118ed565b9050919050565b611918816118fe565b82525050565b5f6020820190506119315f83018461190f565b92915050565b5f80fd5b5f819050919050565b61194d8161193b565b8114611957575f80fd5b50565b5f8135905061196881611944565b92915050565b5f6020828403121561198357611982611937565b5b5f6119908482850161195a565b91505092915050565b5f819050919050565b6119ab81611999565b82525050565b5f8115159050919050565b6119c5816119b1565b82525050565b60c082015f8201516119df5f8501826119a2565b5060208201516119f260208501826119a2565b506040820151611a0560408501826119a2565b506060820151611a1860608501826119a2565b506080820151611a2b60808501826119bc565b5060a0820151611a3e60a08501826119a2565b50505050565b5f60c082019050611a575f8301846119cb565b92915050565b611a6681611999565b8114611a70575f80fd5b50565b5f81359050611a8181611a5d565b92915050565b5f60208284031215611a9c57611a9b611937565b5b5f611aa984828501611a73565b91505092915050565b5f611abc826118a4565b9050919050565b611acc81611ab2565b82525050565b5f602082019050611ae55f830184611ac3565b92915050565b611af481611ab2565b8114611afe575f80fd5b50565b5f81359050611b0f81611aeb565b92915050565b5f60208284031215611b2a57611b29611937565b5b5f611b3784828501611b01565b91505092915050565b611b498161193b565b82525050565b5f602082019050611b625f830184611b40565b92915050565b611b7181611999565b82525050565b5f602082019050611b8a5f830184611b68565b92915050565b5f8060408385031215611ba657611ba5611937565b5b5f611bb38582860161195a565b9250506020611bc485828601611a73565b9150509250929050565b5f611bd8826118ed565b9050919050565b611be881611bce565b82525050565b5f602082019050611c015f830184611bdf565b92915050565b611c10816119b1565b82525050565b5f602082019050611c295f830184611c07565b92915050565b5f604082019050611c425f830185611ac3565b611c4f6020830184611ac3565b9392505050565b7f4e487b71000000000000000000000000000000000000000000000000000000005f52601160045260245ffd5b5f611c8d82611999565b9150611c9883611999565b9250828203905081811115611cb057611caf611c56565b5b92915050565b5f604082019050611cc95f830185611b68565b611cd66020830184611b68565b9392505050565b5f606082019050611cf05f830186611b68565b611cfd6020830185611ac3565b611d0a6040830184611ac3565b949350505050565b5f81519050611d2081611a5d565b92915050565b5f60208284031215611d3b57611d3a611937565b5b5f611d4884828501611d12565b91505092915050565b5f611d5b82611999565b9150611d6683611999565b9250828201905080821115611d7e57611d7d611c56565b5b92915050565b5f819050919050565b5f611da7611da2611d9d84611d84565b6118c3565b611999565b9050919050565b611db781611d8d565b82525050565b5f604082019050611dd05f830185611dae565b611ddd6020830184611dae565b9392505050565b5f606082019050611df75f830186611b68565b611e046020830185611b68565b611e116040830184611b68565b949350505050565b5f8160601b9050919050565b5f611e2f82611e19565b9050919050565b5f611e4082611e25565b9050919050565b611e58611e5382611ab2565b611e36565b82525050565b5f819050919050565b611e78611e7382611999565b611e5e565b82525050565b5f611e898285611e47565b601482019150611e998284611e67565b6020820191508190509392505050565b7f4e487b71000000000000000000000000000000000000000000000000000000005f52600160045260245ffdfea26469706673582212205fcf887ef6daf726c768edad956fee576694073ff54fa4cb8848e4cc5d08c29764736f6c63430008180033","linkReferences":{}},"methodIdentifiers":{"activateEmergency()":"457e8b97","addSafetyNetDebt(bytes32,uint256)":"ae329955","chargeFromYield(bytes32,uint256)":"eae7fd87","clearSafetyNetDebt(bytes32)":"1e1c7275","computeShieldedId(address)":"43e56215","creditPrincipal(bytes32,uint256)":"a2c6cbba","creditYield(bytes32,uint256)":"6eff423b","deposit(uint256)":"b6b55f25","emergencyActive()":"eddaa3ab","emergencyModule()":"42883e2b","emergencyWithdraw()":"db2e21bc","getCircleObligation(bytes32)":"44ba9f35","getPosition(bytes32)":"1928b3cb","getSafetyNetDebtShares(bytes32)":"e64af00c","getWithdrawableBalance(bytes32)":"bf155868","safetyNetPool()":"413578b7","savingsCircle()":"442a5a23","setCircleObligation(bytes32,uint256)":"bad81b40","stablecoin()":"e9cbd822","withdraw(uint256)":"2e1a7d4d","yieldRouter()":"08ccadd8"},"id":39}